:020000040800F2
:100000000050002001020008E9010008EB0100088F
:10001000ED010008EF010008F101000800000000F8
:10002000000000000000000000000000F3010008D4
:10003000F501000800000000F7010008F9010008C0
:100040004902000849020008490200084902000864
:100050004902000849020008490200084902000854
:100060004902000849020008490200084902000844
:100070004902000849020008490200084902000834
:100080004902000849020008490200084902000824
:100090004902000849020008490200084902000814
:1000A0004902000849020008490200084902000804
:1000B00049020008490200084902000849020008F4
:1000C00049020008490200084902000849020008E4
:1000D00049020008490200084902000849020008D4
:1000E0004902000849020008490200080000000017
:1000F0000000000000000000000000000000000000
:0C01000000000000000000005FF808F1A3
:10010C0010B5054C237833B9044B13B10448AFF345
:10011C0000800123237010BD14000020000000009B
:10012C00AC02000808B5034B1BB103490348AFF3FD
:10013C00008008BD0000000018000020AC02000880
:10014C0004223021214B80B59A61214A214E116045
:10015C009A69214D42F008029A614FF48022326074
:10016C0018229A614FF03332A3F580335A60012282
:10017C002B682C7BD96802FA04F421EA0401D960BB
:10018C00687BE74302FA00F06FEA000CD96821EAB9
:10019C000001D960A968AD7BD1F80CE0AA402EEA29
:1001AC000205CD60B56815F0100FDD680BBF254357
:1001BC003D40DD60DD600BBFDD68DD680CEA0505E8
:1001CC000543DD60CD681543EBE700BF001002402E
:1001DC0000080140000C014000000020FEE7FEE793
:1001EC00FEE7FEE7FEE770477047704700F028B85F
:1001FC00704700000C480D490D4A002302E0D4580A
:10020C00C4500433C4188C42F9D30A4A0A4C002354
:10021C0001E013600432A242FBD3FFF7E9FF00F0C8
:10022C001BF8FFF78DFF7047000000201400002022
:10023C00CC0200081400002034000020FEE700006F
:10024C00034A044B11681B780B441360704700BFC2
:10025C00300000201000002070B500260C4D0D4C15
:10026C00641BA410A64209D100F01AF800260A4D0E
:10027C000A4C641BA410A64205D170BD55F8043B72
:10028C0098470136EEE755F8043B98470136F2E7FC
:10029C00C4020008C4020008C4020008C802000816
:1002AC00F8B500BFF8BC08BC9E467047F8B500BF57
:0802BC00F8BC08BC9E46704727
:0402C40031010008FC
:0402C8000D0100081C
:1002CC000010014000100140001001400D0E0F0005
:0402DC00010000001D
:0400000508000201EC
:00000001FF
