:020000040800F2
:1000000068060020890100088D0100088F010008A2
:10001000910100089301000895010008000000000C
:100020000000000000000000000000009701000830
:1000300099010008000000009B0100089D010008D4
:100040009F0100089F0100089F0100089F01000810
:100050009F0100089F0100089F0100089F01000800
:100060009F0100089F0100089F0100089F010008F0
:100070009F0100089F0100089F0100089F010008E0
:100080009F0100089F0100089F0100089F010008D0
:100090009F0100089F0100089F0100089F010008C0
:1000A0009F0100089F0100089F0100089F010008B0
:1000B0009F0100089F0100089F0100089F010008A0
:1000C0009F0100089F0100089F0100089F01000890
:1000D0009F0100089F0100089F0100089F01000880
:1000E0009F0100089F0100089F01000800F002F82E
:1000F00000F03AF80AA090E8000C82448344AAF188
:100100000107DA4501D100F02FF8AFF2090EBAE885
:100110000F0013F0010F18BFFB1A43F0010318473B
:1001200094010000B4010000103A24BF78C878C1DF
:10013000FAD8520724BF30C830C144BF04680C60ED
:10014000704700000023002400250026103A28BF35
:1001500078C1FBD8520728BF30C148BF0B60704739
:100160001FB51FBD10B510BD00F02DF81146FFF7EB
:10017000F7FF00F063F800F04BF803B4FFF7F2FF6D
:1001800003BC00F053F8000008488047FEE7FEE794
:10019000FEE7FEE7FEE7FEE7FEE7FEE7FEE7FEE737
:1001A00003480449044A054B70470000ED0000086D
:1001B0006800002068060020680200206802002015
:1001C000704770477047754600F02CF8AE46050042
:1001D0006946534620F00700854618B020B5FFF762
:1001E000DFFFBDE820404FF000064FF000074FF062
:1001F00000084FF0000B21F00701AC46ACE8C00945
:10020000ACE8C009ACE8C009ACE8C0098D4670474D
:1002100010B50446AFF300802046BDE81040FFF75C
:10022000ACBF0000004870470400002001491820BE
:10023000ABBEFEE726000200704700001948806947
:1002400040F01000174988614FF44010164948608B
:1002500027E01548C06840F400501349C8600020EA
:100260001249086004E011480068401C0F4908600A
:100270000E4800680E498842F5DB0B48C06820F440
:1002800000500949C86000200849086004E0074898
:100290000068401C05490860044800680449884219
:1002A000F5DBD6E7001002400010014000000020FE
:1002B000A0860100D4020008000000200400000015
:1002C00028010008D802000804000020640600008D
:0802D0004401000800000000D9
:04000005080000ED02
:00000001FF
