:020000040800F2
:10000000600600206D0100087101000873010008FE
:100010007501000877010008790100080000000060
:100020000000000000000000000000007B0100084C
:100030007D010008000000007F0100088101000828
:100040008301000883010008830100088301000880
:100050008301000883010008830100088301000870
:100060008301000883010008830100088301000860
:100070008301000883010008830100088301000850
:100080008301000883010008830100088301000840
:100090008301000883010008830100088301000830
:1000A0008301000883010008830100088301000820
:1000B0008301000883010008830100088301000810
:1000C0008301000883010008830100088301000800
:1000D00083010008830100088301000883010008F0
:1000E00083010008830100088301000800F002F882
:1000F00000F02CF80AA090E8000C82448344AAF196
:100100000107DA4501D100F021F8AFF2090EBAE893
:100110000F0013F0010F18BFFB1A43F0010318473B
:100120006C0300007C03000000230024002500264F
:10013000103A28BF78C1FBD8520728BF30C148BF4A
:100140000B6070471FB51FBD10B510BD00F02DF836
:100150001146FFF7F7FF00F065F900F04BF803B424
:10016000FFF7F2FF03BC00F053F800000848804797
:10017000FEE7FEE7FEE7FEE7FEE7FEE7FEE7FEE757
:10018000FEE7FEE703480449044A054B70470000B8
:10019000ED000008600000206006002060020020E2
:1001A00060020020704770477047754600F02CF8D9
:1001B000AE4605006946534620F00700854618B054
:1001C00020B5FFF7DFFFBDE820404FF000064FF0FD
:1001D00000074FF000084FF0000B21F00701AC467C
:1001E000ACE8C009ACE8C009ACE8C009ACE8C0099B
:1001F0008D46704710B50446AFF300802046BDE839
:100200001040FFF7ACBF000000487047000000201E
:1002100001491820ABBEFEE726000200704700B57A
:100220000021012000F086F80021022000F082F871
:1002300000BD70B505460E460DB9002400E040240F
:10024000344344F08000002100F074F870BD0000D9
:1002500000B51E48806940F00C001C4988614FF0D1
:1002600033301B4908601B4908604FF4486000F0B8
:10027000CDF84FF4486000F0C9F84FF4486000F042
:10028000C5F814480830006820F48050114908313E
:1002900008600846006820F48040086048150C4952
:1002A0000831086000F026F80021282000F042F80C
:1002B00000210E2000F03EF84FF4A07000F0A6F8E8
:1002C0000021062000F036F800BD000000100240BA
:1002D00004080140040C014030B505462C4604E0FA
:1002E0002078012100F026F8641C14B12078002841
:1002F000F6D130BD00B50E48006820F480400C49AE
:100300000860DC2000F082F80948006840F4804072
:1003100007490860DC2000F079F80548006820F4FF
:10032000804003490860DC2000F070F800BD000048
:100330000C0C014030B504460D46012D06D1314864
:10034000006840F480502F49086005E02D4800689F
:1003500020F480502B4908604FF400602A4908605F
:1003600040100860401008604010086004F08000F1
:1003700010B1C814091F086004F0400020B14FF408
:1003800080602149091F086004F0200020B14FF46B
:1003900000701D49091F086004F0100020B14FF4DF
:1003A00080701949091F0860FFF7A4FF4FF400602F
:1003B000154908604010086040100860401008604F
:1003C00004F0080010B1C814091F086004F004000C
:1003D00020B14FF480600C49091F086004F002004E
:1003E00020B14FF400700849091F086004F00100B3
:1003F00020B14FF480700449091F0860FFF77AFFAD
:1004000030BD00000C0C0140140801400022002106
:1004100004E000E0521C3C2AFCDB491C8142F8DB72
:10042000704700001148806940F010000F49886152
:10043000FFF70EFFFFF7F3FE4FF033300C49486033
:1004400002210020FFF7F5FE0AA0FFF745FF0A2072
:10045000FFF7DCFF09E009210120FFF7EAFE09A010
:10046000FFF73AFF0848FFF7D1FFF4E7001002401A
:1004700000100140456D6265646465642047726FD9
:10048000757000004F37000040420F009C040008C8
:0C049000000000206006000028010008A9
:04000005080000ED02
:00000001FF
