:020000040800F2
:1000000000500020291C0008F50D0008FB0D000819
:10001000010E0008070E00080D0E00080000000089
:10002000000000000000000000000000D1050008F2
:10003000130E000800000000D10600081907000890
:10004000711C0008711C0008711C0008711C00085C
:10005000711C0008711C0008711C0008711C00084C
:10006000711C0008711C0008711C0008711C00083C
:10007000711C0008711C0008711C0008711C00082C
:10008000711C0008711C0008711C0008711C00081C
:10009000711C0008711C0008711C0008711C00080C
:1000A000711C0008711C0008711C0008711C0008FC
:1000B000711C0008711C0008711C0008711C0008EC
:1000C000711C0008711C0008711C0008711C0008DC
:1000D000711C0008711C0008711C0008711C0008CC
:1000E000711C0008711C0008711C00080000000051
:1000F0000000000000000000000000000000000000
:0C01000000000000000000005FF808F1A3
:1001100010B5054C237833B9044B13B10448AFF341
:1001200000800123237010BD0C000020000000009F
:10013000E81C000808B5034B1BB103490348AFF3A3
:10014000008008BD0000000010000020E81C00082E
:1001500080B588B000AF786000237B6101F022F8A1
:100160003E4B1B68002B04D100F0BAF83B4B012238
:100170001A607B68002B0ED008231A467B68134454
:100180007B607B6803F00703002B04D07B6823F0BF
:10019000070308337B607B68002B57D07B6842F2F3
:1001A000F772934252D82E4BBB612D4B1B68FB61FB
:1001B00004E0FB69BB61FB691B68FB61FB695B6871
:1001C0007A689A4203D9FB691B68002BF1D1FB695D
:1001D000244A93423AD0BB691B68082213447B61CE
:1001E000FB691A68BB691A60FB695A687B68D31A95
:1001F00008225200934222D9FA697B681344FB60BB
:10020000FB695A687B68D21AFB685A60FB697A6896
:100210005A60FB685B68BB60114B3B6102E03B6965
:100220001B683B613B691B685B68BA689A42F6D8F9
:100230003B691A68FB681A603B69FA681A600A4BE6
:100240001A68FB695B68D31A074A136000F0B8FFAD
:100250007B6918462037BD4680BD00BF3828002086
:1002600028280020302800200000002080B586B01B
:1002700000AF78607B683B617B68002B27D0082348
:100280005B423A6913443B613B69FB6000F08AFFC3
:10029000FB685B68BB60104B7B6102E07B691B689D
:1002A0007B617B691B685B68BA689A42F6D87B6998
:1002B0001A68FB681A607B69FA681A60FB685A68FA
:1002C000064B1B681344054A136000F079FF00BF1A
:1002D0001837BD4680BD00BF282800200000002040
:1002E00080B483B000AF0F4B23F007037B600E4A4E
:1002F0007B6813600C4B00225A600C4B42F2F87280
:100300005A600A4B00221A607B683B603B6842F2ED
:10031000F8725A603B68054A1A6000BF0C37BD4648
:1003200080BC7047300000202828002030280020A2
:1003300080B483B000AF78607B6803F108027B680B
:100340005A607B684FF0FF329A607B6803F10802C5
:100350007B68DA607B6803F108027B681A617B685E
:1003600000221A6000BF0C37BD4680BC704780B4C5
:1003700083B000AF78607B6800221A6100BF0C3741
:10038000BD4680BC704780B485B000AF78603960EE
:100390003B681B68BB60BB68B3F1FF3F03D17B6860
:1003A0001B69FB600CE07B680833FB6002E0FB68C4
:1003B0005B68FB60FB685B681B68BA689A42F6D2B0
:1003C000FB685A683B685A603B685B683A689A60A9
:1003D0003B68FA689A60FB683A685A603B687A68DA
:1003E0001A617B681B685A1C7B681A6000BF14374F
:1003F000BD4680BC704780B485B000AF78607B6834
:100400001B69FB607B685B687A6892689A607B68AE
:100410009B687A6852685A60FB685B687A689A429F
:1004200003D17B689A68FB685A607B6800221A6176
:10043000FB681B685A1EFB681A60FB681B6818463D
:100440001437BD4680BC704780B584B000AF78607B
:100450000023FB600B4B1B6807F10C014FF47A7211
:10046000184600F015FBFB68082B05D1064BDB682E
:10047000054A83F00403D3604FF4FA7000F032FEB3
:10048000E8E700BF3C2800200008014080B584B0A8
:1004900000AF78600023FB60094BDB68084A83F0FB
:1004A0000203D3600823FB60064B1868F968002339
:1004B000002200F043FA4FF47A7000F013FEEBE7ED
:1004C000000801403C28002080B582B002AF164BE6
:1004D00004229A61154B4FF44C721A6000220421D9
:1004E000012000F0C9F90346114A1360104B1B6844
:1004F000002B15D0002301930223009300234FF417
:1005000096720C490C4800F090FC002301930123E3
:10051000009300234FF496720849094800F085FCC7
:1005200000F004FEFEE700BF00100240000801409A
:100530003C280020001D00088D040008081D00084C
:100540004904000880B485B000AFF860B9607A60F3
:10055000FB68043BFB60FB684FF080721A60FB682D
:10056000043BFB60BB6823F00102FB681A60FB6878
:10057000043BFB60084AFB681A60FB68143BFB60A5
:100580007A68FB681A60FB68203BFB60FB681846D2
:100590001437BD4680BC70479D05000880B483B009
:1005A00000AF00233B604FF0BF0383F31188BFF31C
:1005B0006F8FBFF34F8F7B6000BF00BF3B68002B86
:1005C000FCD000BF00BF0C37BD4680BC70470000A8
:1005D000074B19680868B0E8F00F80F30988BFF38B
:1005E0006F8F4FF0000080F311884EF00D0E7047B2
:1005F0004028002000BF00BF06480068006880F364
:10060000088862B661B6BFF34F8FBFF36F8F00DF0C
:1006100000BF000008ED00E000BF00BF80B500AFE4
:100620000C4B1B680B4A43F47F031360094B1B6898
:10063000084A43F07F43136000F090F8064B002215
:100640001A60FFF7D9FF00F0ADFFFFF7A7FF002307
:10065000184680BD20ED00E00400002080B483B087
:1006600000AF4FF0BF0383F31188BFF36F8FBFF369
:100670004F8F7B6000BF054B1B680133034A13603B
:1006800000BF0C37BD4680BC704700BF040000208F
:1006900080B483B000AF0A4B1B68013B084A13606B
:1006A000074B1B68002B05D100237B607B6883F31D
:1006B000118800BF00BF0C37BD4680BC704700BF2B
:1006C0000400002000000000000000000000000006
:1006D000EFF30980BFF36F8F0D4B1A6820E9F00F1D
:1006E00010602DE908404FF0BF0080F3118800F042
:1006F00059FF4FF0000080F31188BDE808401968E9
:100700000868B0E8F00F80F30988BFF36F8F704777
:100710004028002000BF00BF80B582B000AF4FF07E
:10072000BF0383F31188BFF36F8FBFF34F8F7B60DD
:1007300000BF00F031FE0346002B03D0064B4FF004
:1007400080521A6000233B603B6883F3118800BF2E
:1007500000BF0837BD4680BD04ED00E080B400AFA7
:10076000084B00221A60084B00221A60074B41F622
:100770003F721A60034B07221A6000BFBD4680BC5F
:10078000704700BF10E000E018E000E014E000E077
:1007900080B584B000AF786039600123FB607B686E
:1007A000BB60BB68002B5DD0BB68DB6B002B59D0F6
:1007B000BB681A6CBB68DB6B0021A3FB0223002B18
:1007C00000D001210B46002B4CD1FFF747FFBB683F
:1007D0001A68BB68DB6BB968096C01FB03F31A4448
:1007E000BB689A60BB6800229A63BB681A68BB68E2
:1007F0005A60BB681A68BB68DB6B013BB968096C5F
:1008000001FB03F31A44BB68DA60BB68FF2283F87C
:100810004420BB68FF2283F845203B68002B14D19D
:10082000BB681B69002B1AD0BB681033184600F058
:1008300015FF0346002B12D00E4B4FF080521A606A
:10084000BFF34F8FBFF36F8F09E0BB6810331846BB
:10085000FFF76EFDBB6824331846FFF769FDFFF70D
:1008600017FF01E00023FB60FB6818461037BD4608
:1008700080BD00BF04ED00E080B58AB002AFF86033
:10088000B9601346FB710023FB61FB68002B2DD080
:100890000021BA68FB68A3FB0223002B00D00121D2
:1008A0000B46002B22D1FB68BA6802FB03F313F15D
:1008B000510F1BD8FB68BA6802FB03F3BB61BB692D
:1008C00050331846FFF744FCF861FB69002B0DD04C
:1008D000FB697B617B6950337B61FA79FB6900932B
:1008E00013467A69B968F86800F005F8FB6918469C
:1008F0002037BD4680BD80B584B000AFF860B960D8
:100900007A60FB70BB68002B03D1BB69BA691A60BF
:1009100002E0BB697A681A60BB69FA68DA63BB698E
:10092000BA681A640121B869FFF732FFBB69FA7827
:1009300083F84C2000BF1037BD4680BD80B58AB01B
:1009400000AFF860B9607A603B6000237B62FB68AF
:100950003B62FFF783FE3B6A9A6B3B6ADB6B9A4212
:1009600002D33B68022B29D13A68B968386A00F093
:1009700031F9F8613B6A5B6A002B10D03B6A243383
:10098000184600F06BFE0346002B13D03F4B4FF090
:1009900080521A60BFF34F8FBFF36F8F0AE0FB697D
:1009A000002B07D0394B4FF080521A60BFF34F8FA6
:1009B000BFF36F8FFFF76CFE012363E07B68002BB2
:1009C00003D1FFF765FE00235CE07B6A002B06D1B4
:1009D00007F11403184600F009FF01237B62FFF7BB
:1009E00057FE00F0DFFBFFF739FE3B6A93F8443017
:1009F0005BB2B3F1FF3F03D13B6A002283F844208E
:100A00003B6A93F845305BB2B3F1FF3F03D13B6AD9
:100A1000002283F84520FFF73BFE3A1D07F114033F
:100A20001146184600F0F8FE0346002B24D1386A20
:100A300000F0C8F90346002B18D03B6A10337A68DF
:100A40001146184600F0F4FD386A00F053F900F042
:100A5000B7FB0346002B7FF47CAF0C4B4FF080526A
:100A60001A60BFF34F8FBFF36F8F72E7386A00F0E1
:100A700041F900F0A5FB6CE7386A00F03BF900F0A3
:100A80009FFB002318462837BD4680BD04ED00E0DB
:100A900080B58AB000AFF860B9607A6000237B62ED
:100AA000FB683B62FFF7DAFD3B6A9B6BFB61FB690E
:100AB000002B1FD0B968386A00F0F6F8FB695A1E9F
:100AC0003B6A9A633B6A1B69002B0FD03B6A103369
:100AD000184600F0C3FD0346002B07D03C4B4FF0F7
:100AE00080521A60BFF34F8FBFF36F8FFFF7D0FDB7
:100AF000012369E07B68002B03D1FFF7C9FD0023C8
:100B000062E07B6A002B06D107F11403184600F05F
:100B10006DFE01237B62FFF7BBFD00F043FBFFF797
:100B20009DFD3B6A93F844305BB2B3F1FF3F03D1C4
:100B30003B6A002283F844203B6A93F845305BB25D
:100B4000B3F1FF3F03D13B6A002283F84520FFF752
:100B50009FFD3A1D07F114031146184600F05CFE94
:100B60000346002B23D1386A00F016F90346002B08
:100B700017D03B6A24337A681146184600F058FDB6
:100B8000386A00F0B7F800F01BFB0346002B89D150
:100B90000F4B4FF080521A60BFF34F8FBFF36F8F30
:100BA00080E7386A00F0A6F800F00AFB7AE7386AB6
:100BB00000F0A0F800F004FB386A00F0EDF80346FE
:100BC000002B3FF46FAF002318462837BD4680BD89
:100BD00004ED00E080B586B000AFF860B9607A60DF
:100BE00000237B61FB689B6B3B61FB681B6C002BEC
:100BF0000DD1FB681B68002B4DD1FB689B68184624
:100C000000F010FF7861FB6800229A6043E07B6887
:100C1000002B19D1FB685868FB681B6C1A46B96831
:100C200001F04CF8FB685A68FB681B6C1A44FB68BF
:100C30005A60FB685A68FB689B689A422BD3FB6832
:100C40001A68FB685A6026E0FB68D868FB681B6C72
:100C50001A46B96801F032F8FB68DA68FB681B6C69
:100C60005B421A44FB68DA60FB68DA68FB681B6861
:100C70009A4207D2FB689A68FB681B6C5B421A4475
:100C8000FB68DA607B68022B05D13B69002B02D040
:100C90003B69013B3B613B695A1CFB689A637B697A
:100CA00018461837BD4680BD80B582B000AF786069
:100CB00039607B681B6C002B18D07B68DA687B6816
:100CC0001B6C1A447B68DA607B68DA687B689B6817
:100CD0009A4203D37B681A687B68DA607B68D968BC
:100CE0007B681B6C1A46386800F0E8FF00BF0837C5
:100CF000BD4680BD80B584B000AF7860FFF7AEFC24
:100D00007B6893F84530FB7311E07B685B6A002BCE
:100D100012D07B682433184600F0A0FC0346002B59
:100D200001D000F0C3FDFB7B013BDBB2FB7397F905
:100D30000F30002BE9DC00E000BF7B68FF2283F866
:100D40004520FFF7A5FCFFF789FC7B6893F844304A
:100D5000BB7311E07B681B69002B12D07B681033DA
:100D6000184600F07BFC0346002B01D000F09EFDEE
:100D7000BB7B013BDBB2BB7397F90E30002BE9DC88
:100D800000E000BF7B68FF2283F84420FFF780FC6F
:100D900000BF1037BD4680BD80B584B000AF78601D
:100DA000FFF75CFC7B689B6B002B02D10123FB608F
:100DB00001E00023FB60FFF76BFCFB68184610376F
:100DC000BD4680BD80B584B000AF7860FFF746FCBB
:100DD0007B689A6B7B68DB6B9A4202D10123FB60D4
:100DE00001E00023FB60FFF753FCFB681846103757
:100DF000BD4680BD80B400AFFEE780B400AFFEE723
:100E000080B400AFFEE780B400AFFEE780B400AF6F
:100E1000FEE780B400AF00BFBD4680BC704780B421
:100E200000AF00BFBD4680BC704780B58CB004AF3A
:100E3000F860B9603B601346FB80FB889B00184656
:100E4000FFF786F978617B69002B0ED05C20FFF7F5
:100E50007FF9F861FB69002B03D0FB697A691A639B
:100E600005E07869FFF702FA01E00023FB61FB6906
:100E7000002B13D0FA8800230393FB690293FB6ACB
:100E80000193BB6A00933B68B968F86800F00EF8FC
:100E9000F86900F091F80123BB6102E04FF0FF33E5
:100EA000BB61BB6918462037BD4680BD80B586B0A2
:100EB00000AFF860B9607A603B60BB6A186B7B6812
:100EC0009B001A46A52100F007FFBB6A1A6B7B68DE
:100ED00003F18043013B9B0013443B613B6923F0DA
:100EE00007033B61BB68002B1FD000237B6112E02E
:100EF000BA687B6913441978BA6A7B69134434333E
:100F00000A461A70BA687B6913441B78002B06D016
:100F10007B6901337B617B690F2BE9D900E000BF5E
:100F2000BB6A002283F8432003E0BB6A002283F8F7
:100F300034203B6A052B01D905233B62BB6A3A6A20
:100F4000DA62BB6A3A6ADA64BB6A00221A65BB6A73
:100F500004331846FFF70BFABB6A18331846FFF73D
:100F600006FABB6ABA6A1A613B6AC3F10602BB6A37
:100F70009A61BB6ABA6A5A62BB6A5433042200217E
:100F8000184600F0A9FEBB6A58330122002118461A
:100F900000F0A2FE3A68F9683869FFF7D3FA024612
:100FA000BB6A1A607B6A002B02D07B6ABA6A1A603D
:100FB00000BF1837BD4680BD80B584B000AF7860F3
:100FC000FFF74CFB404B1B6801333F4A13603F4B1C
:100FD0001B68002B09D13D4A7B6813603A4B1B68A4
:100FE000012B10D100F086FC0DE0394B1B68002B63
:100FF00009D1364B1B68DA6A7B68DB6A9A4202D8F1
:10100000324A7B681360334B1B680133314A1360EB
:10101000304B1A687B685A647B68DB6A01229A400D
:101020002D4B1B6813432C4A13607B68DA6A2B49EB
:1010300013469B0013449B000B4404331B68FB6066
:101040007B68FA689A60FB689A687B68DA60FB687C
:101050009B687A6804325A607B681A1DFB689A6044
:101060007B68DA6A13469B0013449B001B4A1A44B0
:101070007B685A617B68DA6A184913469B001344FF
:101080009B000B441B68591C144813469B001344D7
:101090009B0003441960FFF7FBFA0D4B1B68002B04
:1010A0000ED00A4B1B68DA6A7B68DB6A9A4207D269
:1010B0000B4B4FF080521A60BFF34F8FBFF36F8F0F
:1010C00000BF1037BD4680BD2C29002040280020DD
:1010D00038290020482900203429002044280020F5
:1010E00004ED00E080B584B000AF78600023FB60C1
:1010F0007B68002B08D000F055F80021786800F0DC
:1011000013FD00F05DF8F860FB68002B07D1064B7B
:101110004FF080521A60BFF34F8FBFF36F8F00BF45
:101120001037BD4680BD00BF04ED00E080B584B03F
:1011300002AF154B01930023009300234FF49672E6
:1011400012491348FFF771FE78607B68012B15D1B7
:101150004FF0BF0383F31188BFF36F8FBFF34F8F3F
:101160003B6000BF0B4B4FF0FF321A600A4B01226D
:101170001A600A4B00221A60FFF750FA084B1B68EE
:1011800000BF0837BD4680BD50290020101D000853
:10119000C51800084C2900203829002030290020DB
:1011A0000800002080B400AF044B1B680133034AE1
:1011B000136000BFBD4680BC704700BF54290020AB
:1011C00080B586B000AF00237B6100233B61FFF751
:1011D00045FA684B1B68013B664A1360654B1B6808
:1011E000002B40F0C080644B1B68002B00F0BB80DC
:1011F0008AE0624BDB68DB687B617B699B6ABB6072
:101200007B69DB697A69126A9A607B691B6A7A6911
:10121000D2695A60BB685A687B6918339A4203D115
:101220007B691A6ABB685A607B6900229A62BB6854
:101230001B685A1EBB681A607B695B697B607B69AF
:101240009B687A69D2689A607B69DB687A69926880
:101250005A607B685A687B6904339A4203D17B6980
:10126000DA687B685A607B6900225A617B681B6878
:101270005A1E7B681A607B69DB6A01229A40404BE8
:101280001B6813433E4A13607B69DA6A3D49134683
:101290009B0013449B000B4404331B683B607B6939
:1012A0003A689A603B689A687B69DA603B689B6839
:1012B0007A6904325A607B691A1D3B689A607B69BF
:1012C000DA6A13469B0013449B002E4A1A447B693A
:1012D0005A617B69DA6A2B4913469B0013449B00D1
:1012E0000B441B68591C274813469B0013449B0062
:1012F000034419607B69DA6A234B1B68DB6A9A42F4
:1013000002D3224B01221A601C4B1B68002B7FF476
:1013100070AF7B69002B01D000F06AFB1C4B1B688F
:10132000FB60FB68002B10D000F036F80346002B62
:1013300002D0164B01221A60FB68013BFB60FB6880
:10134000002BF1D1124B00221A60104B1B68002BAE
:1013500009D001233B610F4B4FF080521A60BFF35D
:101360004F8FBFF36F8FFFF793F93B69184618371C
:10137000BD4680BD542900202C290020EC280020E7
:101380003429002044280020402800204029002043
:101390003C29002004ED00E080B588B000AF0023B8
:1013A000FB61754B1B68002B40F0DC80734B1B68A6
:1013B0000133BB61714ABB691360BB69002B10D15B
:1013C0006F4B1B687B616F4B1B686D4A13606D4AE6
:1013D0007B6913606C4B1B6801336B4A136000F030
:1013E00007FB6A4B1B68BA699A42C0F0A680644B3F
:1013F0001B681B68002B04D1644B4FF0FF321A604E
:101400009BE05F4B1B68DB68DB683B613B695B68AB
:10141000FB60BA69FB689A4203D25C4AFB681360BE
:101420008BE03B695B69BB603B699B683A69D2684A
:101430009A603B69DB683A6992685A60BB685A688F
:101440003B6904339A4203D13B69DA68BB685A604E
:101450003B6900225A61BB681B685A1EBB681A6050
:101460003B699B6A002B1ED03B699B6A7B603B6992
:10147000DB693A69126A9A603B691B6A3A69D26908
:101480005A607B685A683B6918339A4203D13B69BA
:101490001A6A7B685A603B6900229A627B681B6803
:1014A0005A1E7B681A603B69DB6A01229A40384BFE
:1014B0001B681343364A13603B69DA6A35491346A1
:1014C0009B0013449B000B4404331B683B603B6947
:1014D0003A689A603B689A683B69DA603B689B6847
:1014E0003A6904325A603B691A1D3B689A603B694D
:1014F000DA6A13469B0013449B00264A1A443B6950
:101500005A613B69DA6A234913469B0013449B00E6
:101510000B441B68591C1F4813469B0013449B0037
:10152000034419603B69DA6A1B4B1B68DB6A9A4209
:10153000FFF45DAF0123FB6159E7174B1B68DA6AC3
:10154000144913469B0013449B000B441B68012B5A
:1015500001D90123FB61114B1B68002B07D001232C
:10156000FB6104E00E4B1B6801330D4A1360FB69FD
:1015700018462037BD4680BD542900203029002060
:10158000E4280020E8280020442900204C290020DD
:101590003429002044280020402800204029002031
:1015A0003C29002080B485B000AF1C4B1B68002B89
:1015B00003D01B4B01221A602AE0194B00221A604B
:1015C000184B1B687B607B68B3FA83F3FB70FB7876
:1015D000C3F11F03FB60FA6813469B0013449B0092
:1015E000114A1344BB60BB685B685A68BB685A60A9
:1015F000BB685A68BB6808339A4204D1BB685B6811
:101600005A68BB685A60BB685B68DB68074A13604E
:1016100000BF1437BD4680BC704700BF542900206E
:1016200040290020342900204428002040280020A0
:1016300080B582B000AF78603960074B1B68183303
:1016400019467868FEF79FFE0121386800F06CFAB1
:1016500000BF0837BD4680BD4028002080B489B057
:1016600000AF78607B68DB68DB68BB61BB699B6A45
:101670007B61BB69DB69BA69126A9A60BB691B6AE4
:10168000BA69D2695A607B695A68BB6918339A4251
:1016900003D1BB691A6A7B695A60BB6900229A62EE
:1016A0007B691B685A1E7B691A604A4B1B68002BBA
:1016B0005ED1BB695B69FB60BB699B68BA69D26834
:1016C0009A60BB69DB68BA6992685A60FB685A68BD
:1016D000BB6904339A4203D1BB69DA68FB685A607C
:1016E000BB6900225A61FB681B685A1EFB681A60BE
:1016F000BB69DB6A01229A40374B1B681343364AA9
:101700001360BB69DA6A354913469B0013449B009A
:101710000B4404331B68BB60BB69BA689A60BB6842
:101720009A68BB69DA60BB689B68BA6904325A6020
:10173000BB691A1DBB689A60BB69DA6A13469B00D5
:1017400013449B00254A1A44BB695A61BB69DA6A93
:10175000224913469B0013449B000B441B68591CF1
:101760001E4813469B0013449B00034419601BE072
:101770001B4B5B683B61BB693A69DA613B699A68FC
:10178000BB691A623B699B68BA6918325A60BB69C7
:1017900003F118023B699A60BB69114A9A62104BC7
:1017A0001B6801330E4A1360BB69DA6A0D4B1B6874
:1017B000DB6A9A4205D90123FB610B4B01221A60B7
:1017C00001E00023FB61FB6918462437BD4680BC5D
:1017D000704700BF542900203429002044280020ED
:1017E000EC280020402800204029002080B483B04D
:1017F00000AF7860064B1A687B681A60054B1A6860
:101800007B685A6000BF0C37BD4680BC704700BF84
:10181000442900203029002080B586B000AF7860D0
:101820003960FEF71BFF1F4B1B683B617B685B68E1
:101830003A69D31AFB603B681B68B3F1FF3F02D1E2
:1018400000237B6126E07B681A68174B1B689A426D
:101850000AD07B685B683A699A4205D301237B61B1
:101860003B6800221A6015E03B681B68FA689A42E0
:101870000BD23B681A68FB68D21A3B681A6078681A
:10188000FFF7B4FF00237B6104E03B6800221A608D
:1018900001237B61FEF7FCFE7B6918461837BD46C5
:1018A00080BD00BF302900204429002080B400AF53
:1018B000034B01221A6000BFBD4680BC704700BFC9
:1018C0004029002080B582B000AF786000F052F867
:1018D000064B1B68012BF9D9054B4FF080521A605B
:1018E000BFF34F8FBFF36F8FF0E700BF4428002096
:1018F00004ED00E080B582B000AF00237B600CE017
:101900007A6813469B0013449B00124A13441846FE
:10191000FEF70EFD7B6801337B607B68052BEFD9FA
:101920000D48FEF705FD0D48FEF702FD0C48FEF7D9
:10193000FFFC0C48FEF7FCFC0B48FEF7F9FC0B4BD8
:10194000054A1A600A4B054A1A6000BF0837BD46AF
:1019500080BD00BF44280020BC280020D0280020E3
:10196000EC2800200029002018290020E42800206D
:10197000E828002080B582B000AF19E0FEF76EFEC7
:10198000104BDB68DB687B607B6804331846FEF72E
:1019900032FD0D4B1B68013B0B4A13600B4B1B6860
:1019A000013B0A4A1360FEF773FE786800F010F8F6
:1019B000064B1B68002BE1D100BF00BF0837BD46B6
:1019C00080BD00BF002900202C2900201429002000
:1019D00080B582B000AF78607B681B6B1846FEF75D
:1019E00045FC7868FEF742FC00BF0837BD4680BD65
:1019F00080B400AF094B1B681B68002B04D1084B57
:101A00004FF0FF321A6005E0044B1B68DB681B686F
:101A1000034A136000BFBD4680BC7047E428002025
:101A20004C29002080B586B000AF78607B683B61B0
:101A300000237B617B68002B6CD03B691B6D5A1EB9
:101A40003B691A653B69DA6A3B69DB6C9A4261D093
:101A50003B691B6D002B5DD13B6904331846FEF7D3
:101A6000CAFC0346002B0AD13B69DB6A012202FA59
:101A700003F3DA432A4B1B681340294A13603B697E
:101A8000DA6C3B69DA623B69DB6AC3F106023B69E7
:101A90009A613B69DB6A01229A40214B1B68134320
:101AA0001F4A13603B69DA6A1E4913469B001344C0
:101AB0009B000B4404331B68FB603B69FA689A6027
:101AC000FB689A683B69DA60FB689B683A69043294
:101AD0005A603B691A1DFB689A603B69DA6A1346D3
:101AE0009B0013449B000F4A1A443B695A613B69AF
:101AF000DA6A0C4913469B0013449B000B441B6895
:101B0000591C084813469B0013449B00034419606A
:101B100001237B617B6918461837BD4680BD00BF35
:101B2000342900204428002080B586B000AF7860BA
:101B30003960364B1B687B61354B1B680433184694
:101B4000FEF759FC0346002B0BD1314B1B68DB6AB7
:101B5000012202FA03F3DA432E4B1B6813402D4A8D
:101B600013607B68B3F1FF3F24D13B68002B21D089
:101B7000294B5B683B61264B1B683A699A60244B92
:101B80001B683A699268DA60214B1A683B699B6866
:101B900004325A601E4B1B681A1D3B699A601C4B2D
:101BA0001B681D4A5A611C4B1B6801331A4A13609B
:101BB00000BF26E07A697B681344FB60144B1B6806
:101BC000FA685A60FA687B699A4209D2134B1A681C
:101BD0000F4B1B68043319461046FEF7D4FB10E088
:101BE0000F4B1A680A4B1B68043319461046FEF760
:101BF000CAFB0C4B1B68FA689A4202D2094AFB687E
:101C0000136000BF1837BD4680BD00BF30290020DB
:101C1000402800203429002018290020E82800202E
:101C2000E42800204C2900200C480D490D4A0023CF
:101C300002E0D458C4500433C4188C42F9D30A4A81
:101C40000A4C002301E013600432A242FBD3FFF7E9
:101C5000E6F800F00FF8FEF737FC704700000020B0
:101C60000C000020201D00080C0000205829002036
:101C7000FEE7000070B500260C4D0D4C641BA4104F
:101C8000A64209D100F030F800260A4D0A4C641B28
:101C9000A410A64205D170BD55F8043B9847013603
:101CA000EEE755F8043B98470136F2E7181D0008A7
:101CB000181D0008181D00081C1D00080A44914248
:101CC00000F1FF3300D1704710B511F8014B91427C
:101CD00003F8014FF9D110BD03460244934200D1ED
:101CE000704703F8011BF9E7F8B500BFF8BC08BC62
:101CF0009E467047F8B500BFF8BC08BC9E467047CA
:101D00005461736B203200005461736B203100000A
:081D100049444C4500000000AD
:041D18003501000889
:041D1C0011010008A9
:0C1D2000F8270000AAAAAAAA05000000EB
:0400000508001C29AA
:00000001FF
