:020000040800F2
:1000000000500020C50F000811070008170700085E
:100010001D0700082307000829070008000000004A
:100020000000000000000000000000007105000852
:100030002F0700080000000061060008A90600085C
:100040000D1000080D1000080D1000080D1000081C
:100050000D1000080D1000080D1000080D1000080C
:100060000D1000080D1000080D1000080D100008FC
:100070000D1000080D1000080D1000080D100008EC
:100080000D1000080D1000080D1000080D100008DC
:100090000D1000080D1000080D1000080D100008CC
:1000A0000D1000080D1000080D1000080D100008BC
:1000B0000D1000080D1000080D1000080D100008AC
:1000C0000D1000080D1000080D1000080D1000089C
:1000D0000D1000080D1000080D1000080D1000088C
:1000E0000D1000080D1000080D10000800000000A1
:1000F0000000000000000000000000000000000000
:0C01000000000000000000005FF808F1A3
:1001100010B5054C237833B9044B13B10448AFF341
:1001200000800123237010BD0800002000000000A3
:100130006810000808B5034B1BB103490348AFF32F
:10014000008008BD000000000C00002068100008BE
:1001500080B588B000AF786000237B6100F076FC4A
:100160003E4B1B68002B04D100F0BAF83B4B012238
:100170001A607B68002B0ED008231A467B68134454
:100180007B607B6803F00703002B04D07B6823F0BF
:10019000070308337B607B68002B57D07B6842F2F3
:1001A000F772934252D82E4BBB612D4B1B68FB61FB
:1001B00004E0FB69BB61FB691B68FB61FB695B6871
:1001C0007A689A4203D9FB691B68002BF1D1FB695D
:1001D000244A93423AD0BB691B68082213447B61CE
:1001E000FB691A68BB691A60FB695A687B68D31A95
:1001F00008225200934222D9FA697B681344FB60BB
:10020000FB695A687B68D21AFB685A60FB697A6896
:100210005A60FB685B68BB60114B3B6102E03B6965
:100220001B683B613B691B685B68BA689A42F6D8F9
:100230003B691A68FB681A603B69FA681A600A4BE6
:100240001A68FB695B68D31A074A136000F00CFC5C
:100250007B6918462037BD4680BD00BF342800208A
:10026000242800202C2800200000002080B586B023
:1002700000AF78607B683B617B68002B27D0082348
:100280005B423A6913443B613B69FB6000F0DEFB73
:10029000FB685B68BB60104B7B6102E07B691B689D
:1002A0007B617B691B685B68BA689A42F6D87B6998
:1002B0001A68FB681A607B69FA681A60FB685A68FA
:1002C000064B1B681344054A136000F0CDFB00BFCA
:1002D0001837BD4680BD00BF242800200000002044
:1002E00080B483B000AF0F4B23F007037B600E4A4E
:1002F0007B6813600C4B00225A600C4B42F2F87280
:100300005A600A4B00221A607B683B603B6842F2ED
:10031000F8725A603B68054A1A6000BF0C37BD4648
:1003200080BC70472C000020242800202C280020AE
:1003300080B483B000AF78607B6803F108027B680B
:100340005A607B684FF0FF329A607B6803F10802C5
:100350007B68DA607B6803F108027B681A617B685E
:1003600000221A6000BF0C37BD4680BC704780B4C5
:1003700083B000AF78607B6800221A6100BF0C3741
:10038000BD4680BC704780B485B000AF78603960EE
:100390007B685B68FB603B68FA685A60FB689A6838
:1003A0003B689A60FB689B683A685A60FB683A68E9
:1003B0009A603B687A681A617B681B685A1C7B6884
:1003C0001A6000BF1437BD4680BC704780B485B04A
:1003D00000AF786039603B681B68BB60BB68B3F1F5
:1003E000FF3F03D17B681B69FB600CE07B6808332F
:1003F000FB6002E0FB685B68FB60FB685B681B6896
:10040000BA689A42F6D2FB685A683B685A603B6801
:100410005B683A689A603B68FA689A60FB683A6879
:100420005A603B687A681A617B681B685A1C7B6853
:100430001A6000BF1437BD4680BC704780B485B0D9
:1004400000AF78607B681B69FB607B685B687A68DB
:1004500092689A607B689B687A6852685A60FB6809
:100460005B687A689A4203D17B689A68FB685A6035
:100470007B6800221A61FB681B685A1EFB681A60C1
:10048000FB681B6818461437BD4680BC70470000E7
:1004900080B582B002AF0A4B10229A61094B4FF42B
:1004A00040125A60002301930423009300234FF469
:1004B00096720549054800F046F900F08FFAFEE70C
:1004C000001002400010014080100008D104000814
:1004D00080B582B000AF7860044BDB68034A83F4D8
:1004E0000053D360962000F055FAF5E70010014064
:1004F00080B485B000AFF860B9607A60FB68043BF7
:10050000FB60FB684FF080721A60FB68043BFB6085
:10051000BB6823F00102FB681A60FB68043BFB60C8
:10052000084AFB681A60FB68143BFB607A68FB684A
:100530001A60FB68203BFB60FB6818461437BD4619
:1005400080BC70474905000880B483B000AF4FF00D
:10055000BF0383F31188BFF36F8FBFF34F8F7B60AF
:1005600000BFFEE7000000000000000000000000E7
:10057000074B19680868B0E8F00F80F30988BFF3EB
:100580006F8F4FF0000080F311884EF00D0E704712
:100590003828002000BF00BF06480068006880F3CC
:1005A000088862B661B6BFF34F8FBFF36F8F00DF6D
:1005B00000BF00BF08ED00E080B500AF0B4B1B682B
:1005C0000A4A43F47F031360084B1B68074A43F051
:1005D0007F43136000F08AF8054B00221A60FFF792
:1005E000DBFFFFF7B1FF0023184680BD20ED00E0E0
:1005F0000400002080B483B000AF4FF0BF0383F34A
:100600001188BFF36F8FBFF34F8F7B6000BF054B27
:100610001B680133034A136000BF0C37BD4680BC22
:10062000704700BF0400002080B483B000AF0A4BC5
:100630001B68013B084A1360074B1B68002B05D160
:1006400000237B607B6883F3118800BF00BF0C37F9
:10065000BD4680BC704700BF0400002000000000C1
:10066000EFF30980BFF36F8F0D4B1A6820E9F00F8D
:1006700010602DE908404FF0BF0080F3118800F0B2
:100680002DFB4FF0000080F31188BDE80840196889
:100690000868B0E8F00F80F30988BFF36F8F7047E8
:1006A0003828002000BF00BF80B582B000AF4FF0F7
:1006B000BF0383F31188BFF36F8FBFF34F8F7B604E
:1006C00000BF00F05FFA0346002B03D0064B4FF04B
:1006D00080521A6000233B603B6883F3118800BF9F
:1006E00000BF0837BD4680BD04ED00E080B400AF18
:1006F000054B41F63F721A60044B07221A6000BF97
:10070000BD4680BC704700BF14E000E010E000E090
:1007100080B400AFFEE780B400AFFEE780B400AF66
:10072000FEE780B400AFFEE780B400AFFEE780B420
:1007300000AF00BFBD4680BC704780B400AF00BFB3
:10074000BD4680BC704780B58CB004AFF860B9601E
:100750003B601346FB80FB889B001846FFF7F8FCC4
:1007600078617B69002B0ED05C20FFF7F1FCF8610B
:10077000FB69002B03D0FB697A691A6305E078698D
:10078000FFF774FD01E00023FB61FB69002B13D030
:10079000FA8800230393FB690293FB6A0193BB6A07
:1007A00000933B68B968F86800F00EF8F86900F04B
:1007B00083F80123BB6102E04FF0FF33BB61BB69EB
:1007C00018462037BD4680BD80B586B000AFF860C2
:1007D000B9607A603B60BB6A186B7B689B001A4605
:1007E000A52100F039FCBB6A1A6B7B6803F18043DA
:1007F000013B9B0013443B613B6923F007033B61D2
:1008000000237B6112E0BA687B6913441978BA6AE5
:100810007B69134434330A461A70BA687B691344FF
:100820001B78002B06D07B6901337B617B690F2B22
:10083000E9D900E000BFBB6A002283F843203B6A8D
:10084000052B01D905233B62BB6A3A6ADA62BB6AAF
:100850003A6ADA64BB6A00221A65BB6A0433184636
:10086000FFF785FDBB6A18331846FFF780FDBB6AAA
:10087000BA6A1A613B6AC3F10602BB6A9A61BB6A33
:10088000BA6A5A62BB6A00225A65BB6A002283F8C0
:1008900058203A68F9683869FFF72AFE0246BB6AB1
:1008A0001A607B6A002B02D07B6ABA6A1A6000BFAA
:1008B0001837BD4680BD000080B582B000AF7860BB
:1008C000FFF798FE2C4B1B6801332B4A13602B4B10
:1008D0001B68002B09D1294A7B681360264B1B68D3
:1008E000012B10D100F058FA0DE0254B1B68002BAE
:1008F00009D1224B1B68DA6A7B68DB6A9A4202D80C
:100900001E4A7B6813601F4B1B6801331D4A13602E
:100910001C4B1A687B685A647B68DB6A01229A4028
:10092000194B1B681343184A13607B68DA6A134635
:100930009B0013449B00154A1A447B6804331946F4
:100940001046FFF720FDFFF76FFE0D4B1B68002BD5
:100950000ED00A4B1B68DA6A7B68DB6A9A4207D2C0
:100960000B4B4FF080521A60BFF34F8FBFF36F8F66
:1009700000BF0837BD4680BD24290020382800204C
:1009800030290020402900202C2900203C2800206C
:1009900004ED00E080B584B000AF78600023FB6018
:1009A0007B68002B08D000F051F80021786800F037
:1009B000A3FA00F059F8F860FB68002B07D1064B4A
:1009C0004FF080521A60BFF34F8FBFF36F8F00BF9D
:1009D0001037BD4680BD00BF04ED00E080B584B097
:1009E00002AF144B01930023009300234FF496723F
:1009F00011491248FFF7A7FE78607B68012B15D1DB
:100A00004FF0BF0383F31188BFF36F8FBFF34F8F96
:100A10003B6000BF0A4B4FF0FF321A60094B0122C6
:100A20001A60094B00221A60FFF7C6FD00BF0837A5
:100A3000BD4680BD4829002088100008690D0008C7
:100A400044290020302900202829002080B400AF4C
:100A5000044B1B680133034A136000BFBD4680BCD2
:100A6000704700BF4C29002080B584B000AF002340
:100A7000FB600023BB60FFF7BDFD394B1B68013BEA
:100A8000374A1360364B1B68002B61D1354B1B680E
:100A9000002B5DD02EE0344BDB68DB68FB60FB682D
:100AA00018331846FFF7CAFCFB6804331846FFF7F3
:100AB000C5FCFB68DB6A01229A402C4B1B68134380
:100AC0002A4A1360FB68DA6A13469B0013449B00B2
:100AD000274A1A44FB68043319461046FFF753FCB3
:100AE000FB68DA6A234B1B68DB6A9A4202D3224B0B
:100AF00001221A601C4B1B68002BCCD1FB68002B19
:100B000001D000F0D5F91D4B1B687B607B68002B82
:100B100010D000F037F80346002B02D0164B01220C
:100B20001A607B68013B7B607B68002BF1D1134B23
:100B300000221A60104B1B68002B09D00123BB60F8
:100B40000F4B4FF080521A60BFF34F8FBFF36F8F80
:100B5000FFF76AFDBB6818461037BD4680BD00BF71
:100B60004C29002024290020E42800202C290020E2
:100B70003C28002038280020382900203429002073
:100B800004ED00E080B586B000AF00237B61484BE8
:100B90001B68002B7CD1474B1B6801333B61454AE6
:100BA0003B6913603B69002B10D1434B1B68FB6012
:100BB000424B1B68404A1360404AFB681360404B3D
:100BC0001B6801333E4A136000F072F93D4B1B680D
:100BD0003A699A424DD3384B1B681B68002B01D1F0
:100BE000012300E00023002B04D0364B4FF0FF32EE
:100BF0001A603EE0304B1B68DB68DB68BB60BB689B
:100C00005B687B603A697B689A4203D22D4A7B68B5
:100C100013602EE0BB6804331846FFF70FFCBB6877
:100C20009B6A002B04D0BB6818331846FFF706FCFC
:100C3000BB68DB6A01229A40234B1B681343224A9C
:100C40001360BB68DA6A13469B0013449B001F4A7B
:100C50001A44BB68043319461046FFF794FBBB687F
:100C6000DA6A1B4B1B68DB6A9A42B4D301237B61AF
:100C7000B1E7174B1B68DA6A144913469B0013440B
:100C80009B000B441B68012B07D901237B6104E007
:100C9000104B1B6801330F4A13600F4B1B68002B6E
:100CA00001D001237B617B6918461837BD4680BDA2
:100CB0004C29002028290020DC280020E0280020E2
:100CC0003C290020442900202C2900203C28002019
:100CD00038280020342900203829002080B485B02D
:100CE00000AF1C4B1B68002B03D01B4B01221A606A
:100CF0002AE0194B00221A60184B1B687B607B6846
:100D0000B3FA83F3FB70FB78C3F11F03FB60FA684F
:100D100013469B0013449B00114A1344BB60BB68FD
:100D20005B685A68BB685A60BB685A68BB6808331E
:100D30009A4204D1BB685B685A68BB685A60BB685A
:100D40005B68DB68074A136000BF1437BD4680BC90
:100D5000704700BF4C290020382900202C29002092
:100D60003C2800203828002080B582B000AF786091
:100D700000F052F8064B1B68012BF9D9054B4FF0D8
:100D800080521A60BFF34F8FBFF36F8FF0E700BF41
:100D90003C28002004ED00E080B582B000AF0023C5
:100DA0007B600CE07A6813469B0013449B00124A58
:100DB00013441846FFF7BCFA7B6801337B607B68FD
:100DC000052BEFD90D48FFF7B3FA0D48FFF7B0FA3E
:100DD0000C48FFF7ADFA0C48FFF7AAFA0B48FFF7EB
:100DE000A7FA0B4B054A1A600A4B054A1A6000BF66
:100DF0000837BD4680BD00BF3C280020B428002035
:100E0000C8280020E4280020F8280020102900200D
:100E1000DC280020E028002080B582B000AF28E068
:100E2000FFF714FE174B1B68002B0CBF0123002398
:100E3000DBB27B60FFF718FE7B68002B19D1FFF750
:100E4000D9FB104BDB68DB683B603B68043318461A
:100E5000FFF7F4FA0C4B1B68013B0B4A13600B4B7A
:100E60001B68013B094A1360FFF7DEFB386800F09E
:100E70000FF8064B1B68002BD2D100BF00BF08370C
:100E8000BD4680BDF8280020242900200C29002020
:100E900080B582B000AF78607B681B6B1846FFF7A7
:100EA000E5F97868FFF7E2F900BF0837BD4680BD75
:100EB00080B483B000AF0E4B1B681B68002B01D1C0
:100EC000012300E00023002B04D00A4B4FF0FF3237
:100ED0001A6008E0064B1B68DB68DB687B607B6898
:100EE0005B68044A136000BF0C37BD4680BC704786
:100EF000DC2800204429002080B584B000AF786051
:100F00003960294B1B68FB60284B1B68043318466B
:100F1000FFF794FA0346002B0BD1244B1B68DB6AC6
:100F2000012202FA03F3DA43214B1B681340204AE3
:100F300013607B68B3F1FF3F0AD13B68002B07D0F9
:100F40001A4B1B68043319461A48FFF71CFA26E0AF
:100F5000FA687B681344BB60144B1B68BA685A601C
:100F6000BA68FB689A4209D2134B1A680F4B1B6888
:100F7000043319461046FFF729FA10E00F4B1A68A0
:100F80000A4B1B68043319461046FFF71FFA0C4B37
:100F90001B68BA689A4202D2094ABB68136000BF54
:100FA0001037BD4680BD00BF28290020382800200A
:100FB0002C29002010290020E0280020DC28002017
:100FC000442900200C480D490D4A002302E0D45862
:100FD000C4500433C4188C42F9D30A4A0A4C002383
:100FE00001E013600432A242FBD3FFF7A6FB00F03E
:100FF0000FF8FFF74DFA70470000002008000020AE
:10100000981000080800002050290020FEE700008A
:1010100070B500260C4D0D4C641BA410A64209D1DE
:1010200000F022F800260A4D0A4C641BA410A642C8
:1010300005D170BD55F8043B98470136EEE755F8E9
:10104000043B98470136F2E7901000089010000822
:10105000901000089410000803460244934200D107
:10106000704703F8011BF9E7F8B500BFF8BC08BCEE
:101070009E467047F8B500BFF8BC08BC9E46704756
:101080007461736B3100000049444C45000000005E
:04109000350100081E
:04109400110100083E
:08109800F8270000AAAAAAAA89
:0400000508000FC51B
:00000001FF
