:020000040800F2
:1000000000500020CD0100087101000877010008B0
:100010007D0100088301000889010008000000003C
:100020000000000000000000000000008F01000838
:100030009B01000800000000A7010008B3010008B0
:100040001502000815020008150200081502000834
:100050001502000815020008150200081502000824
:100060001502000815020008150200081502000814
:100070001502000815020008150200081502000804
:1000800015020008150200081502000815020008F4
:1000900015020008150200081502000815020008E4
:1000A00015020008150200081502000815020008D4
:1000B00015020008150200081502000815020008C4
:1000C00015020008150200081502000815020008B4
:1000D00015020008150200081502000815020008A4
:1000E00015020008150200081502000800000000B3
:1000F0000000000000000000000000000000000000
:0C01000000000000000000005FF808F1A3
:10010C0010B5054C237833B9044B13B10448AFF345
:10011C0000800123237010BD0400002000000000AB
:10012C008402000808B5034B1BB103490348AFF325
:10013C00008008BD000000000800002084020008B8
:10014C0080B400AF054B04229A61054B43F2303268
:10015C001A60034B0422DA60FBE700BF0010024078
:10016C000008014080B400AFFEE780B400AFFEE7AA
:10017C0080B400AFFEE780B400AFFEE780B400AF00
:10018C00FEE780B400AF00BFBD4680BC704780B4B2
:10019C0000AF00BFBD4680BC704780B400AF00BF4D
:1001AC00BD4680BC704780B500AF00F02FF800BF93
:1001BC0080BD80B400AF00BFBD4680BC704700005E
:1001CC000C480D490D4A002302E0D458C4500433A6
:1001DC00C4188C42F9D30A4A0A4C002301E013607C
:1001EC000432A242FBD3FFF7E4FF00F021F8FFF743
:1001FC00A7FF70470000002004000020A4020008A4
:10020C000400002024000020FEE7000080B400AFB2
:10021C00054B1B781A46054B1B681344034A1360A5
:10022C0000BFBD4680BC70470000002020000020AD
:10023C0070B500260C4D0D4C641BA410A64209D1C0
:10024C0000F01AF800260A4D0A4C641BA410A642B2
:10025C0005D170BD55F8043B98470136EEE755F8CB
:10026C00043B98470136F2E79C0200089C02000808
:10027C009C020008A0020008F8B500BFF8BC08BC3E
:10028C009E467047F8B500BFF8BC08BC9E46704748
:04029C003101000824
:0402A0000D01000844
:0402A4000100000055
:04000005080001CD21
:00000001FF
